S00D0000484F5254412E7372656399
S11300000C943C000C9459000C9459000C94590025
S11300100C9459000C9459000C9459000C945900F8
S11300200C9459000C9459000C9459000C945900E8
S11300300C9459000C943F050C9459000C945900ED
S11300400C9459000C9459000C9459000C945900C8
S11300500C9459000C9459000C9459000C945900B8
S11300600C9459000C9459007B08B20883088C083E
S113007095089E08A708AF0811241FBECFEFD8E04B
S1130080DEBFCDBF11E0A0E0B1E0EEE0F2E102C0DE
S113009005900D92AE35B107D9F721E0AEE5B1E098
S11300A001C01D92A73EB207E1F70E94AD000C9477
S11300B005090C9400008FEF8093610182E0809326
S11300C060011092640108950E940A068093610100
S11300D08F3F89F18130D9F028F08230F9F08330F4
S11300E021F129C080E00E946C0580E00E94430158
S11300F0809160010E94A4062091670140E060E0C5
S113010085E00E941B0581E08093640118C081E0B2
S11301100E946C0582E0809360010DC082E00E9421
S11301206C0583E08093600106C083E00E946C0547
S113013084E08093600180916401813069F485E0FA
S11301400E943605811108C085E00E946C0581E09B
S11301500E94430110926401089510926901109263
S11301608000E1E8F0E010828081856080838EEB7E
S113017090EF9093850080938400EFE6F0E0808117
S11301808160808378940E9446010E9412020E943A
S113019011030E945A050E94D6040E9490060E94F0
S11301A0B3080E9408010E945B00C1E00E946F0135
S11301B00E94EE040E942904809169018230A9F012
S11301C028F4882341F0813059F015C0833081F040
S11301D08430A1F010C00E946F080E94A2040EC0D7
S11301E00E9464000E94890609C00E94BA0806C0E1
S11301F00E940E0103C0C0936901D8CF80916901A8
S11302008F5F80936901853088F210926901CECFA7
S113021010926B0181E080936A010895CF93DF937C
S113022081E00E94C908EC0180916A01813029F4BF
S113023061E084E00E94F40223C080916B01882372
S113024019F0813081F01CC061E084E00E94F40266
S113025080916501909166018C179D0788F081E07B
S113026080936B010DC060E084E00E94F4028091F1
S1130270620190916301C817D90710F010926B01C5
S1130280DF91CF91089580936A010895CF93DF930E
S1130290109278011092790110927E00CCE6D1E0A0
S11302A06EE271E0E8E2F1E080E028E730E01992E4
S11302B01992DB019D91BD01913051F4863040F4D7
S11302C0D90116964C9116979081942B16969C936F
S11302D08F5F3196863059F7DF91CF9108958091E1
S11302E07801823081F128F4882341F08130F9F0DB
S11302F05FC08330C1F18430F1F15AC080917A013A
S11303008F5F863018F480937A0102C010927A01CC
S1130310E0917A01F0E0E25DFE4F8081813009F0E6
S113032049C08093780182E3809379010895809194
S11303307901882321F0815080937901089582E026
S1130340809378010895E8E7F0E0948180917A0140
S1130350892B848387E8828382818064828383E01B
S113036080937801089580917A0086FD23C084E00B
S113037080937801089580917C0085FF03C02091CB
S1130380790030E080917C0085FD06C0E8E7F0E06C
S11303902081818130E0382BE0917A01F0E0EE0F8A
S11303A0FF1FE459FE4F3183208310927801089592
S11303B0109278010895E8E7F0E094819F779483A0
S11303C0948190649483823068F4811104C08481A0
S11303D08062848307C0813029F4E8E7F0E08481F7
S11303E08F7D8483623078F4611106C0E8E7F0E021
S11303F082818F7D82830895613029F4E8E7F0E0FB
S11304008281806282830895863048F4E82FF0E088
S1130410EE0FFF1FE459FE4F80819181089580E023
S113042090E00895559A83E384BD85E085BD18BCAA
S11304300895655171096331710580F4813039F093
S113044018F0823041F0089585E085BD089582E07A
S113045080938100089585E08093B1000895653606
S113046008F064E6823001F128F4882349F08130F1
S113047089F00895843071F110F18530B1F1089557
S11304802FEF629FC001112464E670E00E94D70838
S113049067BD08952FEF629FC001112464E670E0E8
S11304A00E94D70868BD08952FEF629FC0011124F0
S11304B064E670E00E94D7086093890008952FEFE6
S11304C0629FC001112464E670E00E94D708609323
S11304D08B0008952FEF629FC001112464E670E041
S11304E00E94D7086093B30008952FEF629FC00164
S11304F0112464E670E00E94D7086093B400089564
S113050070E0FB01E45CFE4F2081813031F018F093
S1130510823029F005C095B103C098B101C09BB1E8
S1130520413069F4E82FF0E0EE0FFF1FE050FF4F79
S11305300190F081E02D8181822B81830895411106
S113054014C0E82FF0E0EE0FFF1FE050FF4F0190C2
S1130550F081E02D8181DB01AC5CBE4F9C9198233E
S113056091839281822F892B82830895411114C033
S1130570E82FF0E0EE0FFF1FE050FF4FA081B181A4
S113058012969C911297E62FF0E0EC5CFE4F80816E
S1130590892312968C930895E82FF0E0EE0FFF1F45
S11305A0E050FF4FA081B18112969C911297E62FE3
S11305B0F0E0E45CFE4F8081892B12968C930895C1
S11305C0E82FF0E0EE0FFF1FE050FF4F0190F081A5
S11305D0E02D9081E62FF0E0E45CFE4F80819823CB
S11305E081E009F480E0089590E0662331F0FC0195
S11305F0E458FE4F21E020830895FC01E458FE4FA7
S113060010820895ECE7F1E021E831E091E08823DD
S113061011F0908301C010823196E217F307B9F705
S113062008950F931F93CF93DF93CEE0D1E008E1B9
S113063011E041E0698188810E9480022296C017FE
S1130640D107B9F7C6E0D1E00EE011E040E06981DE
S113065088810E9480022296C017D107B9F781E0F1
S11306600E940203549A579A209A60E081E00E9403
S1130670DB011092990185E080937B01EAE4F1E0CB
S11306808DE891E0C1EAD1E06AE971E040E551E02A
S11306902191213039F4DC011D921C9219821882B7
S11306A0DB011C92029622966F5F7F4FE417F507D9
S11306B079F7DF91CF911F910F910895282F8430FE
S11306C070F48091A00190E0A0E0B0E004C0B69581
S11306D0A795979587952A95D2F78170089580E01C
S11306E008950E94A5040895863048F4E82FF0E0A8
S11306F0EE0FFF1FE357FE4F808191810895089507
S1130700882329F063E681E00E942F02089560E0C7
S113071081E00E942F0208958A30910520F0BC01E7
S113072080E00E9419020895AF92BF92CF92DF92A7
S1130730EF92FF920F931F93CF93DF93C4E5D1E021
S11307400F2EFCE7EF2EF1E0FF2EF02D0EE011E06E
S11307500F2EF9E5CF2EF1E0DF2EF02DBB24B3945C
S1130760A12C8991813059F4F8014B2DD7018C913A
S1130770811101C04A2D618180810E94B602BFEFC0
S1130780EB1AFB0A0E5F1F4FCC15DD0551F7DF9105
S1130790CF911F910F91FF90EF90DF90CF90BF907A
S11307A0AF9008958F929F92AF92BF92DF92EF9293
S11307B0FF920F931F93CF93DF930F2EF0E5EF2E4D
S11307C0F1E0FF2EF02D06E011E0C0E0D0E0812C36
S11307D0912C54018394F70181917F01813039F583
S11307E0F801618180810E94E002811110C0D5016D
S11307F0C4010C2E04C0880F991FAA1FBB1F0A94A2
S1130800D2F72091A001822B8093A00110C0D501C2
S1130810C4010C2E04C0880F991FAA1FBB1F0A9481
S1130820D2F780959091A00189238093A00121960D
S11308300E5F1F4FC430D10571F6DF91CF911F9128
S11308400F91FF90EF90DF90BF90AF909F908F90AB
S113085008950E9494030E94D2030895CF93DF93D6
S113086080919901813019F0833031F05DC060E0EE
S113087081E00E94DB0158C0C0917B01D0E0FE0101
S1130880E65BFE4F8081813009F044C0FE01E656EC
S1130890FE4F8081883038F5FE01EC5BFE4F80818D
S11308A00E940402CC0FDD1FCF57DE4F998388834B
S11308B0E0917B01F0E0CF01880F991FDC01AF5577
S11308C0BE4FEC01CF57DE4F2D913C91119788819B
S11308D09981820F931F8D939C93E656FE4F8081DE
S11308E08F5F808317C0FE01EE0FFF1FDF01A35748
S11308F0BE4FEF55FE4F80819181969587959695D1
S11309008795969587958D939C9311821082C656F0
S1130910DE4F188280917B018F5F863018F48093BC
S11309207B0102C010927B01809199018F5F84301A
S113093018F48093990103C081E080939901DF91B9
S1130940CF9108950E942E040895FB015C9847E01E
S113095050E0208130E0042E02C0359527950A949A
S1130960E2F720FF02C0289A01C028985F9A5F9896
S11309704150510970F727E030E0E82FF0E0E75AE2
S1130980FE4F408150E0CA01022E02C09595879522
S11309900A94E2F780FF02C0289A01C028985F9A5F
S11309A05F982150310978F75C9A0895EFEAF1E0F5
S11309B08EEB91E01082128211823396E817F907C8
S11309C0C9F7EEEBF1E08AED91E010821182128218
S11309D013823496E817F907C1F7089580915E01F0
S11309E0813041F5EEEBF1E02AED31E04BE380811B
S11309F08130D1F48381882349F0815083835281EB
S1130A009181952B892B81F410820EC082818823D9
S1130A1021F081508283438307C08181882321F0A0
S1130A2081508183428343833496E217F307F9F6B6
S1130A3010925E0108958730C0F490E0FC01EE0F3F
S1130A40FF1FEE0FFF1FE254FE4F108261834283AB
S1130A502383242B622B49F0880F991F880F991F39
S1130A60FC01E254FE4F81E08083089524E0829FDC
S1130A70C0011124FC01E254FE4F808108951F92AD
S1130A800F920FB60F9211248F939F9380915E0162
S1130A90811109C08EEB90EF9093850080938400C0
S1130AA081E080935E019F918F910F900FBE0F9014
S1130AB01F90189584E08093DB011092DA0184EB97
S1130AC090E090936601809365018CED90E09093A3
S1130AD06301809362010895863010F48093DB01F2
S1130AE008958091DB01823009F440C028F4882302
S1130AF071F0813011F10895843029F008F44FC069
S1130B008530B1F0089581E00E940203089561E008
S1130B1080E00E94F40261E081E00E94F40261E05E
S1130B2082E00E94F40260E083E00E94F4020895EF
S1130B3061E083E00E94F402089560E080E00E9496
S1130B40F40261E081E00E94F40261E082E00E942C
S1130B50F40284EB90E090936601809365018CED40
S1130B6090E09093630180936201089561E080E0D6
S1130B700E94F40260E081E00E94F40261E082E0FD
S1130B800E94F4028AEF90E09093660180936501DD
S1130B908CE291E09093630180936201089561E097
S1130BA080E00E94F40261E081E00E94F40260E0CF
S1130BB082E00E94F40280E491E0909366018093C5
S1130BC065018CE791E0909363018093620108953D
S1130BD08AEA8093DA0180E00E945E03813011F496
S1130BE08093DA0181E00E945E03813019F482E08F
S1130BF08093DA0182E00E945E03813019F483E07D
S1130C008093DA0183E00E945E03813011F4109234
S1130C10DA0108950E94E8058091DA01089580912F
S1130C20DB01823009F44BC028F4882349F0813079
S1130C3089F10895833009F457C08430B1F00895E0
S1130C4064E271E080E00E94710365E271E081E09A
S1130C500E94710366E271E082E00E94710367E220
S1130C6071E083E00E947103089564E271E080E022
S1130C700E94710365E271E081E00E94710366E203
S1130C8071E082E00E94710367E271E083E00E94F8
S1130C907103089560E271E080E00E94710361E2F3
S1130CA071E081E00E94710362E271E082E00E94DF
S1130CB0710363E271E083E00E94710308956CE1C3
S1130CC071E080E00E9471036DE171E081E00E94B7
S1130CD071036EE171E082E00E9471036FE171E0E3
S1130CE083E00E947103089568E171E080E00E944E
S1130CF0710369E171E081E00E9471036AE171E0CE
S1130D0082E00E9471036BE171E083E00E94710351
S1130D1008950E94E8050E9471050E940F06089537
S1130D2087E08093DC011092DF011092E10182E000
S1130D308093E20186E08093DE018CE08093E00101
S1130D4081E08093DD010895883020F087E080936E
S1130D50DC0108958093DC0108958EE190E00E9407
S1130D608C038091DF01813099F028F0823019F1F1
S1130D708330A1F13EC081E00E94800322E040E084
S1130D8060E082E00E941B0581E08093DF0108950A
S1130D9082E00E943605811130C021E040E060E02D
S1130DA082E00E941B0582E08093DF0180E00E94C4
S1130DB0800381E0089582E00E94360581111FC0FE
S1130DC021E040E060E082E00E941B0583E0809324
S1130DD0DF0181E00E94800381E0089582E00E94A7
S1130DE0360581110EC01092DF010E94800380E05D
S1130DF008951092DF0180E0089581E0089581E074
S1130E00089581E00895CF93C82F81E080935F0116
S1130E108EE190E00E948C03C13099F138F0C23029
S1130E2009F486C0C33009F403C128C185E090E009
S1130E3090936801809367018091E101882319F000
S1130E40813071F019C025E040E060E083E00E9449
S1130E501B0581E00E94800381E08093E1010EC1C3
S1130E6083E00E943605811109C10E94800310921B
S1130E70E10110925F0102C11092E10110925F0141
S1130E80FDC082E190E090936801809367018091B6
S1130E90E2018330B1F018F4823031F043C0843081
S1130EA011F1853091F13EC025E040E060E083E03F
S1130EB00E941B0581E00E94800383E08093E2018D
S1130EC0DDC083E00E9436058111D8C028E040E0EF
S1130ED060E083E00E941B0580E00E94800384E0C0
S1130EE08093E201CBC083E00E9436058111C6C025
S1130EF025E040E060E083E00E941B0581E00E9461
S1130F00800385E08093E201B9C083E00E94360546
S1130F108111B4C00E94800382E08093E2011092A8
S1130F205F01ACC082E08093E20110925F01A6C031
S1130F308FE190E090936801809367018091DE01D6
S1130F40883069F128F4863059F08730B1F06AC0EE
S1130F508A3009F448C0A8F18B3009F456C062C045
S1130F6025E040E060E083E00E941B0581E00E94F0
S1130F70800387E08093DE0181C083E00E94360510
S1130F8081117CC028E040E060E083E00E941B0502
S1130F9080E00E94800388E08093DE016FC083E0DC
S1130FA00E94360581116AC025E040E060E083E0DC
S1130FB00E941B0581E00E94800389E08093DE018A
S1130FC05DC083E00E943605811158C028E040E0EE
S1130FD060E083E00E941B0580E00E9480038AE0B9
S1130FE08093DE014BC083E00E943605811146C028
S1130FF025E040E060E083E00E941B0581E00E9460
S113100080038BE08093DE0139C083E00E943605C3
S1131010811134C00E94800386E08093DE01109227
S11310205F012CC086E08093DE0110925F0126C030
S11310308091E0018C3019F08D3071F01AC021E0FC
S113104040E060E083E00E941B0581E00E94800391
S11310508DE08093E00112C083E00E943605811187
S11310600DC00E9480038CE08093E00110925F0128
S113107005C08CE08093E00110925F0180915F01D4
S1131080CF9108958EE190E00E948C038091DD0160
S1131090882391F08130E1F425E040E060E084E0D1
S11310A00E941B0581E00E9480031092DD0180E014
S11310B00E946C0581E0089584E00E943605811148
S11310C00CC00E94800381E08093DD0180E00895DC
S11310D081E08093DD0180E0089581E00895E0914E
S11310E0DC018E2F90E088309105E0F5FC01EC5C8A
S11310F0FF4F0C94EB080E94AD06811133C087E0CA
S11311008093DC01089580E00E94030781112AC0C6
S113111087E08093DC01089581E00E940307811138
S113112021C087E08093DC01089582E00E940307D8
S1131130811118C087E08093DC01089583E00E9448
S1131140030781110FC087E08093DC0108950E949A
S11311504208811107C087E08093DC01089580E094
S11311600E9480030895E3EEF1E01182108213825D
S11311701282089585E00E94740380579E4F9695CD
S1131180879596958795C2969093E6018093E5019D
S11311900895823048F4E82FF0E0EE0FFF1FED5180
S11311A0FE4F80819181089580E090E0089597FB3F
S11311B0072E16F4009407D077FD09D00E94F10899
S11311C007FC05D03EF4909581959F4F0895709546
S11311D061957F4F0895EE0FFF1F0590F491E02D68
S11311E00994AA1BBB1B51E107C0AA1FBB1FA6176A
S11311F0B70710F0A61BB70B881F991F5A95A9F7BC
S111120080959095BC01CD010895F894FFCF20
S113120E230026002900010101020103000100054B
S113121E0004000300020206C0C0C0B0C0C0C0A4D7
S113122EC0C0C0F9C0C0C0C0010204081020000034
S113123E00000001FEFDFBF7EFDFBF7F0102040893
S113124E102040800001020304050000000000018C
S111125E010101010101010101F1F2F4F800A6
S9030000FC
