:100000000C9434000C9451000C9451000C94510049
:100010000C9451000C9451000C9451000C9451001C
:100020000C9451000C9451000C9451000C9451000C
:100030000C9451000C9451000C9451000C945100FC
:100040000C9451000C9451000C9451000C945100EC
:100050000C9451000C9451000C9451000C945100DC
:100060000C9451000C94510011241FBECFEFD8E026
:10007000DEBFCDBF11E0A0E0B1E0E6E4F9E002C0F0
:1000800005900D92AA35B107D9F721E0AAE5B1E0B4
:1000900001C01D92A13AB207E1F70E9477000C94CB
:1000A000A1040C9400008FEF80935A0108950E94E0
:1000B0009C0480935A018F3FB9F0813051F028F0B1
:1000C000823059F0833069F00FC080E00E94BD0398
:1000D0000BC081E00E94BD0307C082E00E94BD0307
:1000E00003C083E00E94BD030E949704089510920C
:1000F0005E010E9437020E94B7030E9453000E94D3
:10010000A900C1E00E943B0380915E01823089F02A
:1001100028F4882331F0813039F00EC0853078F032
:100120000BC00E94B4030BC00E9457000E949704AA
:1001300006C00E94D20003C0C0935E01E3CF80914D
:100140005E018F5F80935E018530E0F210925E0168
:10015000D9CFCF93DF9310926B0110926C01109264
:100160007E00CFE5D1E06CE271E0E6E2F1E080E014
:1001700028E730E019921992DB019D91BD01913081
:1001800051F4863040F4D90116964C91169790811F
:10019000942B16969C938F5F3196863059F7DF919A
:1001A000CF91089580916B01823081F128F48823EA
:1001B00041F08130F9F05FC08330C1F18430F1F15A
:1001C0005AC080916D018F5F863018F480936D0165
:1001D00002C010926D01E0916D01F0E0E45DFE4F10
:1001E0008081813009F049C080936B0182E3809364
:1001F0006C01089580916C01882321F081508093D7
:100200006C01089582E080936B010895E8E7F0E0C7
:10021000948180916D01892B848387E88283828118
:100220008064828383E080936B01089580917A00DB
:1002300086FD23C084E080936B01089580917C004B
:1002400085FF03C02091790030E080917C0085FD1E
:1002500006C0E8E7F0E02081818130E0382BE091B2
:100260006D01F0E0EE0FFF1FE15AFE4F3183208356
:1002700010926B01089510926B010895E8E7F0E089
:1002800094819F779483948190649483823068F4FE
:10029000811104C084818062848307C0813029F485
:1002A000E8E7F0E084818F7D8483623078F4611127
:1002B00006C0E8E7F0E082818F7D82830895613097
:1002C00029F4E8E7F0E08281806282830895863035
:1002D00048F4E82FF0E0EE0FFF1FE15AFE4F808157
:1002E0009181089580E090E0089570E0FB01E65C64
:1002F000FE4F2081813031F018F0823029F005C0A6
:1003000095B103C098B101C09BB1413069F4E82FA9
:10031000F0E0EE0FFF1FE050FF4F0190F081E02D65
:100320008181822B81830895411114C0E82FF0E070
:10033000EE0FFF1FE050FF4F0190F081E02D818113
:10034000DB01AE5CBE4F9C91982391839281822FFA
:10035000892B82830895411114C0E82FF0E0EE0F3D
:10036000FF1FE050FF4FA081B18112969C91129720
:10037000E62FF0E0EE5CFE4F8081892312968C938D
:100380000895E82FF0E0EE0FFF1FE050FF4FA0812F
:10039000B18112969C911297E62FF0E0E65CFE4F39
:1003A0008081892B12968C930895E82FF0E0EE0F50
:1003B000FF1FE050FF4F0190F081E02D9081E62F6C
:1003C000F0E0E65CFE4F8081982381E009F480E054
:1003D0000895FB015C9847E050E0208130E0042E56
:1003E00002C0359527950A94E2F720FF02C0289AAB
:1003F00001C028985F9A5F984150510970F727E033
:1004000030E0E82FF0E0EE5BFE4F408150E0CA01A3
:10041000022E02C0959587950A94E2F780FF02C0EC
:10042000289A01C028985F9A5F982150310978F77F
:100430005C9A089590E0662331F0FC01E159FE4F8B
:1004400021E020830895FC01E159FE4F10820895B8
:10045000EFE6F1E023E731E091E0882311F09083AB
:1004600001C010823196E217F307B9F708950F9390
:100470001F93CF93DF93CEE0D1E006E111E041E09E
:10048000698188810E9475012296C017D107B9F74A
:10049000C6E0D1E00EE011E040E0698188810E9471
:1004A00075012296C017D107B9F781E00E94280292
:1004B000549A579A209A60E081E00E943E0110927F
:1004C0008B0185E080936E01ECE4F1E08FE791E031
:1004D000C3E9D1E06CE871E042E551E021912130BF
:1004E00039F4DC011D921C9219821882DB011C92E6
:1004F000029622966F5F7F4FE417F50779F7DF9139
:10050000CF911F910F910895282F843070F480911E
:10051000920190E0A0E0B0E004C0B695A795979551
:1005200087952A95D2F78170089580E008950E94FA
:10053000E9010895863048F4E82FF0E0EE0FFF1F40
:10054000E158FE4F8081918108950895AF92BF9246
:10055000CF92DF92EF92FF920F931F93CF93DF938F
:10056000C6E5D1E00F2EFFE6EF2EF1E0FF2EF02DD5
:100570000EE011E00F2EFAE5CF2EF1E0DF2EF02D88
:10058000BB24B394A12C8991813059F4F8014B2DEF
:10059000D7018C91811101C04A2D618180810E9417
:1005A000AB01BFEFEB1AFB0A0E5F1F4FCC15DD0549
:1005B00051F7DF91CF911F910F91FF90EF90DF9056
:1005C000CF90BF90AF9008958F929F92AF92BF92BD
:1005D000DF92EF92FF920F931F93CF93DF930F2E33
:1005E000F2E5EF2EF1E0FF2EF02D06E011E0C0E085
:1005F000D0E0812C912C54018394F70181917F01EB
:10060000813039F5F801618180810E94D501811125
:1006100010C0D501C4010C2E04C0880F991FAA1F59
:10062000BB1F0A94D2F720919201822B80939201F2
:1006300010C0D501C4010C2E04C0880F991FAA1F39
:10064000BB1F0A94D2F780959091920189238093E1
:10065000920121960E5F1F4FC430D10571F6DF91D4
:10066000CF911F910F91FF90EF90DF90BF90AF90CF
:100670009F908F9008950E94A6020E94E402089520
:10068000CF93DF9380918B01813019F0833031F06B
:100690005DC060E081E00E943E0158C0C0916E01E3
:1006A000D0E0FE01E45BFE4F8081813009F044C060
:1006B000FE01E457FE4F8081883038F5FE01EA5B89
:1006C000FE4F80810E946701CC0FDD1FCD58DE4FA9
:1006D00099838883E0916E01F0E0CF01880F991F24
:1006E000DC01AD56BE4FEC01CD58DE4F2D913C9153
:1006F000119788819981820F931F8D939C93E45762
:10070000FE4F80818F5F808317C0FE01EE0FFF1FB9
:10071000DF01A158BE4FED56FE4F80819181969525
:10072000879596958795969587958D939C9311823D
:100730001082C457DE4F188280916E018F5F863021
:1007400018F480936E0102C010926E0180918B01AB
:100750008F5F843018F480938B0103C081E0809315
:100760008B01DF91CF9108950E944003089584E0AA
:100770008093A00110929F010895863010F4809319
:10078000A00108958091A0018130F9F030F082300D
:10079000C1F1833009F451C0089581E00E9428021C
:1007A00062E271E080E00E94970263E271E081E022
:1007B0000E94970264E271E082E00E94970265E283
:1007C00071E083E00E949702089560E080E00E945B
:1007D0001A0261E081E00E941A0261E082E00E9458
:1007E0001A0285E00E949A028D32914028F060E062
:1007F00083E00E941A023DC061E083E00E941A0279
:1008000038C060E080E00E941A0260E081E00E944F
:100810001A0261E082E00E941A0285E00E949A02B8
:10082000853F914028F060E083E00E941A0236C0C4
:1008300061E083E00E941A0231C060E080E00E9423
:100840001A0260E081E00E941A0260E082E00E94E9
:100850001A0285E00E949A028132934028F060E0FB
:1008600083E00E941A022FC061E083E00E941A0216
:100870002AC06EE171E080E00E9497026FE171E0B2
:1008800081E00E94970260E271E082E00E9497029C
:1008900061E271E083E00E94970208956AE171E0ED
:1008A00080E00E9497026BE171E081E00E94970274
:1008B0006CE171E082E00E9497026DE171E083E0FB
:1008C0000E949702089566E171E080E00E9497021D
:1008D00067E171E081E00E94970268E171E082E0E7
:1008E0000E94970269E171E083E00E9497020895F7
:1008F00080E00E948402813011F480939F0181E0A6
:100900000E948402813019F482E080939F0182E08A
:100910000E948402813019F483E080939F0183E078
:100920000E948402813011F410929F0108950E9468
:1009300078040E94C20308950E94780480919F0168
:060940000895F894FFCFBA
:100946002300260029000101010201030001000520
:10095600000400030002C0B0A4C0C0A492C0C0F945
:10096600A4C0C0C0C0C001020408102000000000DE
:100976000001FEFDFBF7EFDFBF7F01020408102038
:100986004080F1F2F4F800010203040500000000C3
:0A099600000101010101010101014E
:00000001FF
