:100000000C9434000C9451000C9451000C94510049
:100010000C9451000C9451000C9451000C9451001C
:100020000C9451000C9451000C9451000C9451000C
:100030000C9451000C9451000C9451000C945100FC
:100040000C9451000C9451000C9451000C945100EC
:100050000C9451000C9451000C9451000C945100DC
:100060000C9451000C94510011241FBECFEFD8E026
:10007000DEBFCDBF11E0A0E0B1E0ECEAFCE002C0E1
:1000800005900D92AA36B107D9F721E0AAE6B1E0B2
:1000900001C01D92A93BB207E1F70E949E000C949B
:1000A00054060C9400008FEF80936A0180E00E9458
:1000B000B005089583E00E94B0050E942605809354
:1000C0006A018F3FC1F18230F9F028F4882341F0B2
:1000D000813081F030C0833009F18A3A49F12BC078
:1000E00080E00E94C20483E00E94260181E00E9419
:1000F000B00521C081E00E94C20480E00E94260178
:1001000081E00E94B00517C082E00E94C20481E035
:100110000E94260181E00E94B0050DC083E00E948C
:10012000C20482E00E94260181E00E94B00503C063
:1001300083E00E94B0050E94A505089510926E010B
:100140000E9429010E94F5010E94F6020E94BC044F
:100150000E94AC050E9408060E94DF000E94530026
:10016000C1E00E940F0480916E01823099F028F462
:10017000882341F0813059F015C0833081F08430FC
:10018000A1F010C00E94E3050E9488040EC00E94E6
:100190005A000BC00E9452010E940F0606C00E9426
:1001A000E50003C0C0936E01DCCF80916E018F5FCC
:1001B00080936E018530A8F210926E01D2CF10921A
:1001C000700183E080936F010895EF92FF920F9387
:1001D0001F93CF93DF93E0916F01F0E0EE0FFF1FCD
:1001E000EE0FFF1FEA5DFE4FE080F1800281138178
:1001F00081E00E941E06EC0180916F01833021F4A2
:1002000061E00E94D9021BC080917001882319F01F
:10021000813061F014C061E083E00E94D902EC16E5
:10022000FD0668F081E08093700109C060E083E022
:100230000E94D902C017D10710F010927001DF910F
:10024000CF911F910F91FF90EF90089580936F01D0
:100250000895CF93DF9310927D0110927E0110924A
:100260007E00C1E7D1E06CE371E0E6E3F1E080E01D
:1002700028E730E019921992DB019D91BD01913080
:1002800051F4863040F4D90116964C91169790811E
:10029000942B16969C938F5F3196863059F7DF9199
:1002A000CF91089580917D01823081F128F48823D7
:1002B00041F08130F9F05FC08330C1F18430F1F159
:1002C0005AC080917F018F5F863018F480937F0140
:1002D00002C010927F01E0917F01F0E0E45CFE4FEC
:1002E0008081813009F049C080937D0182E3809351
:1002F0007E01089580917E01882321F081508093B2
:100300007E01089582E080937D010895E8E7F0E0A2
:10031000948180917F01892B848387E88283828105
:100320008064828383E080937D01089580917A00C8
:1003300086FD23C084E080937D01089580917C0038
:1003400085FF03C02091790030E080917C0085FD1D
:1003500006C0E8E7F0E02081818130E0382BE091B1
:100360007F01F0E0EE0FFF1FEF58FE4F3183208337
:1003700010927D01089510927D010895E8E7F0E064
:1003800094819F779483948190649483823068F4FD
:10039000811104C084818062848307C0813029F484
:1003A000E8E7F0E084818F7D8483623078F4611126
:1003B00006C0E8E7F0E082818F7D82830895613096
:1003C00029F4E8E7F0E08281806282830895863034
:1003D00048F4E82FF0E0EE0FFF1FEF58FE4F80814A
:1003E0009181089580E090E00895539AE0EBF0E069
:1003F00081E3808382E08183148208956D537F407E
:10040000673C710580F4813039F018F0823041F09A
:10041000089582E085BD089582E08093810008956B
:1004200082E08093B1000895653608F064E682307A
:1004300001F128F4882349F0813089F0089584304F
:1004400071F110F18530B1F108952FEF629FC00175
:10045000112464E670E00E942C0667BD08952FEF1A
:10046000629FC001112464E670E00E942C0668BD02
:1004700008952FEF629FC001112464E670E00E948E
:100480002C066093890008952FEF629FC00111240C
:1004900064E670E00E942C0660938B0008952FEFB5
:1004A000629FC001112464E670E00E942C066093F4
:1004B000B30008952FEF629FC001112464E670E03D
:1004C0000E942C066093B400089570E0FB01E65B87
:1004D000FE4F2081813031F018F0823029F005C0C4
:1004E00095B103C098B101C09BB1413069F4E82FC8
:1004F000F0E0EE0FFF1FE050FF4F0190F081E02D84
:100500008181822B81830895411114C0E82FF0E08E
:10051000EE0FFF1FE050FF4F0190F081E02D818131
:10052000DB01AE5BBE4F9C91982391839281822F19
:10053000892B82830895411114C0E82FF0E0EE0F5B
:10054000FF1FE050FF4FA081B18112969C9112973E
:10055000E62FF0E0EE5BFE4F8081892312968C93AC
:100560000895E82FF0E0EE0FFF1FE050FF4FA0814D
:10057000B18112969C911297E62FF0E0E65BFE4F58
:100580008081892B12968C930895E82FF0E0EE0F6E
:10059000FF1FE050FF4F0190F081E02D9081E62F8A
:1005A000F0E0E65BFE4F8081982381E009F480E073
:1005B000089590E0662331F0FC01EF57FE4F21E0F3
:1005C00020830895FC01EF57FE4F10820895E1E863
:1005D000F1E025E831E091E0882311F0908301C03B
:1005E00010823196E217F307B9F708950F931F931E
:1005F000CF93DF93CEE0D1E006E111E041E06981E5
:1006000088810E9465022296C017D107B9F7C6E01B
:10061000D1E00EE011E040E0698188810E9465022E
:100620002296C017D107B9F781E00E94E702549AD9
:10063000579A209A60E081E00E94BE0110929D01CD
:1006400085E080938001E8E5F1E081E991E0C5EA89
:10065000D1E06EE971E04EE551E02191213039F4AD
:10066000DC011D921C9219821882DB011C920296F9
:1006700022966F5F7F4FE417F50779F7DF91CF91EF
:100680001F910F910895282F843070F48091A40158
:1006900090E0A0E0B0E004C0B695A7959795879547
:1006A0002A95D2F78170089580E008950E948B0406
:1006B0000895863048F4E82FF0E0EE0FFF1FEF5664
:1006C000FE4F8081918108950895882329F064E682
:1006D00085E00E941402089560E085E00E94140203
:1006E0000895803D27E0920720F0BC0182E00E943F
:1006F000FE010895AF92BF92CF92DF92EF92FF92E8
:100700000F931F93CF93DF93C2E6D1E00F2EF1E852
:10071000EF2EF1E0FF2EF02D0EE011E00F2EF6E6A9
:10072000CF2EF1E0DF2EF02DBB24B394A12C8991C4
:10073000813059F4F8014B2DD7018C91811101C002
:100740004A2D618180810E949B02BFEFEB1AFB0A58
:100750000E5F1F4FCC15DD0551F7DF91CF911F9133
:100760000F91FF90EF90DF90CF90BF90AF900895E2
:100770008F929F92AF92BF92DF92EF92FF920F9370
:100780001F93CF93DF930F2EFEE5EF2EF1E0FF2EA8
:10079000F02D06E011E0C0E0D0E0812C912C540156
:1007A0008394F70181917F01813039F5F8016181EE
:1007B00080810E94C502811110C0D501C4010C2E98
:1007C00004C0880F991FAA1FBB1F0A94D2F720915B
:1007D000A401822B8093A40110C0D501C4010C2E6A
:1007E00004C0880F991FAA1FBB1F0A94D2F78095D7
:1007F0009091A40189238093A40121960E5F1F4F3D
:10080000C430D10571F6DF91CF911F910F91FF9008
:10081000EF90DF90BF90AF909F908F9008950E94CF
:100820007A030E94B8030895CF93DF9380919D01CE
:10083000813019F0833031F05DC060E081E00E94CA
:10084000BE0158C0C0918001D0E0FE01E85AFE4FC1
:100850008081813009F044C0FE01E256FE4F808164
:10086000883038F5FE01EE5AFE4F80810E94E70184
:10087000CC0FDD1FCB57DE4F99838883E091800139
:10088000F0E0CF01880F991FDC01AB55BE4FEC01A2
:10089000CB57DE4F2D913C91119788819981820F22
:1008A000931F8D939C93E256FE4F80818F5F8083D0
:1008B00017C0FE01EE0FFF1FDF01AF56BE4FEB5515
:1008C000FE4F80819181969587959695879596950F
:1008D00087958D939C9311821082C256DE4F1882A9
:1008E000809180018F5F863018F48093800102C070
:1008F0001092800180919D018F5F843018F4809365
:100900009D0103C081E080939D01DF91CF91089507
:100910000E9414040895FB015C9847E050E0208198
:1009200030E0042E02C0359527950A94E2F720FFA7
:1009300002C0289A01C028985F9A5F9841505109D7
:1009400070F727E030E0E82FF0E0EA59FE4F4081F1
:1009500050E0CA01022E02C0959587950A94E2F7ED
:1009600080FF02C0289A01C028985F9A5F982150A2
:10097000310978F75C9A089584E08093B20110926F
:10098000B1010895863010F48093B20108958091EA
:10099000B2018230F9F028F4882359F0813069F0EF
:1009A0000895833021F1843071F581E00E94E702DF
:1009B000089581E00E94E702089560E080E00E94CF
:1009C000D90261E081E00E94D90261E082E00E94E8
:1009D000D902089560E080E00E94D90260E081E0E1
:1009E0000E94D90261E082E00E94D902089560E08D
:1009F00080E00E94D90260E081E00E94D90260E0BC
:100A000082E00E94D90208958AEA8093B10180E0D1
:100A10000E944303813011F48093B10181E00E9470
:100A20004303813019F482E08093B10182E00E9497
:100A30004303813019F483E08093B10183E00E9485
:100A40004303813011F41092B10108950E9404050E
:100A50008091B10108958091B201823009F44BC0B8
:100A600028F4882349F0813089F10895833009F40E
:100A700057C08430B1F0089562E271E080E00E94D6
:100A8000560363E271E081E00E94560364E271E084
:100A900082E00E94560365E271E083E00E94560303
:100AA000089562E271E080E00E94560363E271E023
:100AB00081E00E94560364E271E082E00E945603E6
:100AC00065E271E083E00E94560308956EE171E0F3
:100AD00080E00E9456036FE171E081E00E945603BE
:100AE00060E271E082E00E94560361E271E083E01F
:100AF0000E94560308956AE171E080E00E94560367
:100B00006BE171E081E00E9456036CE171E082E0EC
:100B10000E9456036DE171E083E00E945603089540
:100B200066E171E080E00E94560367E171E081E0D8
:100B30000E94560368E171E082E00E94560369E179
:100B400071E083E00E94560308950E9404050E940C
:100B5000C7040E942B05089583E08093B301089594
:100B6000843020F083E08093B30108958093B30133
:100B7000089580EA9FE00E94710381E00E9465036E
:100B80002FE78AE196E0215080409040E1F700C0D5
:100B9000000080E00E94650380E0089580EA9FE005
:100BA0000E94710381E00E9465032FE38DE093E0D2
:100BB000215080409040E1F700C0000080E00E949A
:100BC000650380E008958091B301813071F028F0D1
:100BD000823099F08330C1F008950E94B9058111E7
:100BE00016C083E08093B30108950E94CE05811161
:100BF0000EC083E08093B301089580E00E946503F6
:100C000083E08093B301089580E00E946503089516
:100C1000E5EBF1E01182108213821282089585E0E3
:100C20000E94590380579E4F969587959695879574
:100C3000C2969093B8018093B7010895823048F42A
:100C4000E82FF0E0EE0FFF1FEB54FE4F8081918103
:100C5000089580E090E0089597FB072E16F4009425
:100C600007D077FD09D00E94400607FC05D03EF46E
:100C7000909581959F4F0895709561957F4F089548
:100C8000AA1BBB1B51E107C0AA1FBB1FA617B707B2
:100C900010F0A61BB70B881F991F5A95A9F78095CE
:0C0CA0009095BC01CD010895F894FFCFA1
:100CAC0023002600290001010102010300010005B7
:100CBC00000400030002C0B0B0C0C0A480C0C0F9E2
:100CCC0090C0C0C0C0C0B400D200FA002C014001DA
:100CDC007C0100000000010204081020000000004C
:100CEC000001FEFDFBF7EFDFBF7F010204081020BF
:100CFC004080000102030405000000000001010116
:0A0D0C00010101010101F1F2F4F808
:00000001FF
